:100000000C94E2060C9429070C9429070C942907F8
:100010000C9429070C9429070C9429070C942907A0
:100020000C9429070C9429070C94D9270C94AC281C
:100030000C94B01E0C9429070C9429070C942907E2
:100040000C9429070C9429070C9429070C94290770
:100050000C9429070C94181F0C9429070C94290759
:100060000C9429070C9429070C9429070C94290750
:100070000C9429070C9429070C9429070C94290740
:100080000C9429070C9429070C9429070C94290730
:100090000C9429070C9429070C9429070C94290720
:1000A0000C9429070C9429070C94290729001E0099
:1000B0001F0020002100220023002400250026002C
:1000C00027002D002E00310035002B0014001A00EF
:1000D0000800150017001C0018000C001200130087
:1000E0002F0030002A000000E00004001600070086
:1000F00009000A000B000D000E000F003300340051
:10010000280028000000E100E1001D001B0006009F
:100110001900050011001000360037003800E1001A
:10012000E1000151E000E200E300E3000000000014
:1001300000002C002C00E700E200E200E200E200F8
:100140000000A5003A003B003C003D003E003F009F
:1001500040004100420043004400450049004C007B
:10016000390034703570367037703870397001006E
:10017000460047004800520001004C00000001000A
:10018000AA00A900A8003A703B70550054004A002C
:100190004B0050004F000100010000000100010071
:1001A00000703270307031703370570056004D005F
:1001B0004E00510001000100010001000100AD00EE
:1001C000010000000000000001000100010001002A
:1001D0000100010001000000010001000100010018
:1001E0000100010001000100010001000100010007
:1001F00001000100010001000100010001000100F7
:1002000001000100010001000100010001000100E6
:1002100001000000010001000100010001000100D7
:1002200001000100010001000100010001000100C6
:1002300000000100010001000100010001000100B7
:1002400001000100010001000100010001000100A6
:100250000100010001000100000000000000010099
:100260000100010001000100010001000000010087
:100270000100010001000100010001000100010076
:100280000100010001000100010001000100010066
:100290000100010001000100010001000100010056
:1002A0000100010001000100000001000100010047
:1002B0000100010001000100010001000100010036
:1002C0000100010001000000010001000100010027
:1002D0000100010001000100010001000100010016
:1002E0000100010001000100010001000100000007
:1002F00000000000010001000100010001000100F8
:1003000001000000010001000100010001000100E6
:1003100001000100010001000100010001000100D5
:1003200001000100010001000100010001000100C5
:1003300001000100010001000100010001000000B6
:1003400001000100010001000100010001000100A5
:100350000100010001000100010001000000010096
:100360000100010001000100010001000100010085
:100370000100010001000100010001000100010075
:100380000100010000000000000001000100010068
:100390000100010001000100000001000100010056
:1003A0000100010001000100010001000100010045
:1003B0000100010001000100010001000100010035
:1003C0000100010001000100010001000100010025
:1003D0000100010000000100010001000100010016
:1003E0000100010001000100010001000100010005
:1003F00001000000010001000100010001000100F6
:1004000001000100010001000100010001000100E4
:1004100001000100010001000100000000000000D7
:1004200001000100010001000100010001000000C5
:1004300001000100010001000100010001000100B4
:1004400001000100010001000100010001000100A4
:100450000100010001000100010001000100010094
:100460000100010001000100010000000100010085
:100470000100010001000100010001000100010074
:100480000100010001000100000001000100010065
:100490000100010001000100010001000100010054
:1004A0000100010001000100010001000100010044
:1004B0000000000000000100010001000100010037
:1004C0000100010000000100010001000100010025
:1004D0000100010001000100010001000100010014
:1004E0000100010001000100010001000100010004
:1004F00001000100010001000100010001000100F4
:1005000000000100010001000100010001000100E4
:1005100001000100010001000100010001000000D4
:1005200001000100010001000100010001000100C3
:1005300001000100010001000100010001000100B3
:1005400001000100010000000000000001000100A6
:100550000100010001000100010000000100010094
:100560000100010001000100010001000100010083
:100570000100010001000100010001000100010073
:100580000100010001000100010001000100010063
:100590000100010001000000010001000100010054
:1005A0000100010001000100010001000100010043
:1005B0000100010000000100010001000100010034
:1005C0000100010001000100010001000100010023
:1005D0000100010001000100010001000000000015
:1005E0000000010001000100010001000100010004
:1005F00000000100010001000100010001000100F4
:1006000001000100010001000100010001000100E2
:1006100001000100010001000100010001000100D2
:1006200001000100010001000100010000000100C3
:1006300001000100010001000100010001000100B2
:1006400001000100010001000100000001000100A3
:100650000100010001000100010001000100010092
:100660000100010001000100010001000100010082
:100670000100000000000000010001000100010075
:100680000100010001000000010001000100010063
:100690000100010001000100010001000100010052
:1006A0000100010001000100010001000100010042
:1006B0000100010001000100010001000100010032
:1006C0000100000001000100010001000100010023
:1006D0000100010001000100010001000100010012
:1006E0000000010001000100010001000100010003
:1006F00001000100010001000100010001000100F2
:1007000001000100010001000000000000000100E4
:1007100001000100010001000100010000000100D2
:1007200001000100010001000100010001000100C1
:1007300001000100010001000100010001000100B1
:1007400001000100010001000100010001000100A1
:100750000100010001000100000001000100010092
:100760000100010001000100010001000100010081
:100770000100010001000000010001000100010072
:100780000100010001000100010001000100010061
:100790000100010001000100010001000100000052
:1007A0000000000001000100010001000100010043
:1007B0000100000001000100010001000100010032
:1007C0000100010001000100010001000100010021
:1007D0000100010001000100010001000100010011
:1007E0000100010001000100010001000100000002
:1007F00001000100010001000100010001000100F1
:1008000001000100010001000100010000000100E1
:1008100001000100010001000100010001000100D0
:1008200001000100010001000100010001000100C0
:1008300001000100000000000000010001000100B3
:1008400001000100010001000000010001000100A1
:100850000100010001000100010001000100010090
:100860000100010001000100010001000100010080
:100870000100010001000100010001000100010070
:100880000100010000000100010001000100010061
:100890000100010001000100010001000100010050
:1008A0000100000001000100010001000100010041
:1008B0000100010001000100010001000100010030
:1008C0000100010001000100010000000000000023
:1008D0000100010001000100010001000100000011
:1008E0000100010001000100010001000100010000
:1008F00001000100010001000100010001000100F0
:1009000001000100010001000100010001000100DF
:1009100001000100010001000100000001000100D0
:1009200001000100010001000100010001000100BF
:1009300001000100010001000000010001000100B0
:10094000010001000100010001000100010001009F
:10095000010001000100010001000100010001008F
:100960000000000000000100010001000100010082
:100970000100010000000100010001000100010070
:10098000010001000100010001000100010001005F
:10099000010001000100010001000100010001004F
:1009A000010001000100010001000100010001003F
:1009B0000000010001000100010001000100010030
:1009C0000100010001000100010001000100000020
:1009D000010001000100010001000100010001000F
:1009E00001000100010001000100010001000100FF
:1009F00001000100010000000000000001000100F2
:100A000001000100010001000100000064321464D3
:100A10003214783C1E1E140A05000000000101017A
:100A20000202030405050607090A0B0C0E0F11123A
:100A3000141517191B1D1F212325282A2C2F31348B
:100A400036393B3E414346494C4F5255585A5D61F9
:100A500064676A6D707376797C7F8386898C8F92E8
:100A600095989B9EA2A5A7AAADB0B3B6B9BCBEC1CE
:100A7000C4C6C9CBCED0D3D5D7DADCDEE0E2E4E61B
:100A8000E8EAEBEDEEF0F1F3F4F5F6F8F9FAFAFB3B
:100A9000FCFDFDFEFEFEFFFFFFFFFFFFFFFEFEFE73
:100AA000FDFDFCFBFAFAF9F8F6F5F4F3F1F0EEEDE2
:100AB000EBEAE8E6E4E2E0DEDCDAD7D5D3D0CECB71
:100AC000C9C6C4C1BEBCB9B6B3B0ADAAA7A5A29EE3
:100AD0009B9895928F8C898683807C797673706DD4
:100AE0006A6764615D5A5855524F4C494643413ECE
:100AF0003B393634312F2C2A282523211F1D1B1961
:100B000017151412110F0E0C0B0A09070605050420
:100B100003020201010100000000000000000101C9
:100B200001010101010101020202020202020202AC
:100B3000030303030303030304040404040405057B
:100B4000050505060606060607070707080808083C
:100B50000909090A0A0A0A0B0B0B0C0C0C0D0D0DE6
:100B60000E0E0F0F0F101011111112121313141477
:100B7000151516161717181819191A1A1B1C1C1DEB
:100B80001D1E1F1F20202122222324252526272742
:100B900028292A2B2B2C2D2E2F2F30313233343570
:100BA00036363738393A3B3C3D3E3F40414243447C
:100BB000464748494A4B4C4D4F5051525355565752
:100BC000585A5B5C5E5F606263646667696A6C6DFD
:100BD0006E707173747678797B7C7E808183848675
:100BE000888A8B8D8F91929496989A9B9D9FA1A3B2
:100BF000A5A7A9ABADAFB1B3B5B7B9BBBDBFC1C4B4
:100C0000C6C8CACCCFD1D3D6D8DADCDFE1E4E6E877
:100C1000EBEDF0F2F5F7FAFCFF12036B00650079DB
:100C20000062006F00610072006400000016037132
:100C3000006D006B006200750069006C0064006567
:100C400000720000000403090409026D00040100A1
:100C5000A0FA0904000001030101000921110100AB
:100C6000012240000705810308000A090401000170
:100C700003010200092111010001224D0007058234
:100C80000308000A09040200010300000009211101
:100C90000100012236000705830308000A09040346
:100CA00000010300000009211101000122390007A1
:100CB0000584032000011201100100000008EDFE70
:100CC000606001000102000105010906A10105079C
:100CD00019E029E71500250195087501810205082D
:100CE0001901290595057501910295017503910179
:100CF0000507190029F71500250195F875018102EE
:100D0000C005010980A10185021601002603001A11
:100D100081002A8300751095018100C0050C09012E
:100D2000A1018503160100269C021A01002A9C02DB
:100D3000751095018100C005010902A1010901A1F9
:100D40000005091901290515002501950575018181
:100D500002950175038101050109300931158125CD
:100D60007F95027508810609381581257F950175E3
:100D7000088106050C0A38021581257F9501750842
:100D80008106C0C005010906A101050719E029E790
:100D900015002501950875018102950175088101ED
:100DA000050819012905950575019102950175033D
:100DB00091010507190029FF150026FF009506750A
:100DC000088100C011241FBECFEFDAE0DEBFCDBF27
:100DD00004B603FE27C08091920290919302A091E5
:100DE0009402B09195028730904BA740B04BD1F45C
:100DF0001092920210929302109294021092950215
:100E000014BE84B7877F84BF0FB6F894A8958091ED
:100E10006000886180936000109260000FBEE0E087
:100E2000F8E3099511E0A0E0B1E0E4E0F8E502C0E4
:100E300005900D92AC33B107D9F722E0ACE3B1E0F5
:100E400001C01D92A239B207E1F70E9426250C9439
:100E5000002C0C94000090E080E00895089508951F
:100E600081FF03C0849A8C9808958498FCCF81E018
:100E7000089581E008950C9439070E940F172FEF11
:100E800084E39CE0215080409040E1F700C00000E6
:100E90000C943D1FFF920F931F93CF93DF938C0110
:100EA000FC01C081D18180918D01811148C0828176
:100EB000882309F43FC0CE010E94761CF82E682FCB
:100EC000CE010E941C1CBE018F2D0E942B09EC013B
:100ED000B8010E943B07882309F478C0B801CE010D
:100EE0000E945B0B882309F471C0C633F0E7DF076B
:100EF00009F484C0C0F5C53190E7D90728F5C230A0
:100F0000E0E7DE0708F099C0C115F0E7DF0709F454
:100F100058C0C130D04709F460C081E080933E01E1
:100F200080933F01C801DF91CF911F910F91FF90F6
:100F30000C943707CE010E944B1CF82EC4CFCE0173
:100F40000E94761CBE01C1CFC43390E7D90709F4D3
:100F50004EC0C533D04709F7F80182818823B1F12B
:100F60000E94760F33C0CA33F0E7DF0709F457C099
:100F700070F4F8018281C833F0E7DF0709F44AC052
:100F800008F443C0882311F10E94BA0E1FC0CC336D
:100F9000E0E7DE0709F4D5C008F448C0CD33D047F8
:100FA00009F0BBCFF8018281882309F4F1C01092C7
:100FB0003F010E94E21E90933D0180933C0180E23C
:100FC000CDC0F801828181110E943D0780E0DF9150
:100FD000CF911F910F91FF900895F801828188238E
:100FE000A9F380912502816080932502EFCFF8015B
:100FF0008281882359F30E94800FE8CFF801828113
:10100000882321F30E946B0EE1CF8823F9F20E941E
:10101000830EDCCF8823D1F20E94A20ED7CFF80135
:101020008281882399F20E94D20ED0CFF80182816A
:10103000882361F20E94EA0EC9CFF80182818823D9
:1010400009F470CF0E94331E811102C00E940D1E50
:101050000E94501E90E09093830280938202FE01D2
:10106000E350F047809182028160E231F105C8F4DB
:10107000E45CF74F0C94B22B4E085A085E086208E5
:1010800066086A086E08720876087A087E08820880
:1010900086088A088E08920896089A08809182022B
:1010A000826080938202809182020E94541E0E947C
:1010B0000F178CCF809182028460F3CF80918202DF
:1010C0008860EFCF809182028061EBCF80918202B5
:1010D0008062E7CF809182028064E3CF80918202B8
:1010E0008068DFCF809182028460EACF80918202A3
:1010F0008E7FD7CF809182028D7FD3CF8091820265
:101100008B7FCFCF80918202877FCBCF809182026D
:101110008F7EC7CF809182028F7DC3CF8091820264
:101120008F7BBFCF809182028F77BBCF809182026D
:101130008B7FEACF90918202892F97FB87F98058A5
:10114000B0CFF8018281882361F010923E010E94A5
:10115000E21E90933D0180933C0182E00E9479144D
:1011600035CF80913E0181110FC080913C0190915B
:101170003D010E94EE1E883C910530F486E20E94FB
:101180004E1386E20E942A1482E00E9480141ECF31
:1011900080913F0181110FC080913C0190913D01F0
:1011A0000E94EE1E883C910530F487E20E944E13A7
:1011B00087E20E942A1480E2E8CF0C94AC0B279AB5
:1011C0002F988FEF9FEF90938700809386008AE09F
:1011D0008093800089E1809381000C94DB220E943F
:1011E000DF080C94AA0B2F9881110AC0809180000F
:1011F000877F8093800010928D0010928C0008955C
:10120000853061F4809180008860809380008FEF4A
:101210009FEF90938D0080938C00089590918000B3
:1012200098609093800025E030E0A901481B5109A7
:10123000CA019A01220F331F280F391F8FEF9FEF2A
:1012400002C0969587952A95E2F7E3CF0C94300774
:101250000C9426090895972F70E02FE0929F600D5F
:10126000711D1124FB019BE4899FE00DF11D1124E8
:10127000EE0FFF1FE455FF4F859194910895FC01F7
:10128000EE0FFF1FE45FF54F8591949108950E9442
:101290002B090E94DA0A811520E5920708F040C068
:1012A000811530E4930708F0FAC0883E910518F5DF
:1012B000803E910508F07DC1883A910580F4853A19
:1012C000910508F087C08130910509F472C120F0C2
:1012D0008430910508F06DC190E080E008958D3B69
:1012E000910508F482C0803C9105B0F3805C9109BF
:1012F0000E943F090895811540E2940750F481153A
:1013000021E0920708F055C1803F910528F39065D0
:101310000895811530E3930708F0BEC09F70E8CFB1
:10132000811545E5940760F5811524E5920708F0DD
:10133000E5C0811532E5930750F4811541E5940726
:1013400008F4B0C0982F8827816F906A0895282FDD
:1013500026952695AC01437055278115934508F0D5
:10136000BEC081E090E002C0880F991F4A95E2F765
:1013700040E2249F90011124822B932B9C680895B6
:10138000803340E7940798F4803220E7920708F012
:10139000BFC0811536E5930708F4B5C09C013056EF
:1013A0009F702115304108F097CF906208958133E6
:1013B00020E7920709F4B3C008F4AEC0823340E7D7
:1013C000940709F4AFC08333904709F085CF80E0DC
:1013D00093ED0895853A910509F4A7C0863A9105E1
:1013E00009F0A6C082E890E40895883A910509F4CE
:1013F000A2C0893A910509F4A1C08A3A910509F47D
:10140000A0C08B3A910509F49FC08C3A910509F46C
:101410009EC08B3B910509F49DC08C3B910509F45E
:101420009CC08D3A910509F49BC0803B910509F45D
:101430009AC08E3A910509F499C08F3A910509F442
:1014400098C0813B910509F497C0823B910509F44E
:1014500096C0833B910509F495C0843B910509F43E
:1014600094C0853B910509F493C0863B910509F42E
:1014700092C0873B910509F491C0883B910509F41E
:1014800090C0893B910509F48FC08A3B910509F40E
:101490008EC080E094E408959927906C08959F7021
:1014A000906A08959C0154E0369527955A95E1F786
:1014B000922F9370482F437021E030E002C0220F3A
:1014C000331F4A95E2F73C68392B869586958370E1
:1014D00040E2849FC0011124822B932B089581E068
:1014E00090E002C0880F991F4A95E2F740E2249FDE
:1014F00090011124822B932B9A680895982F8827A6
:10150000846F906A0895982F882788279F714DCF00
:1015100080529047946D089580E091ED089580E0A9
:1015200090ED089580E092ED089581E890E40895AB
:1015300083E890E4089582EE94E4089589EE94E4BB
:1015400008958AEE94E4089585EB94E4089586EB7B
:1015500094E4089583EB94E4089584EB94E408956F
:1015600087EB94E408958CEC94E408958DEC94E476
:10157000089583E895E408958AE895E4089582E95A
:1015800095E4089584E995E4089581E296E4089548
:1015900083E296E4089584E296E4089585E296E471
:1015A000089586E296E4089587E296E408958AE233
:1015B00096E408958238910549F1B0F4813391059C
:1015C00009F45CC048F48932910509F452C08A32AA
:1015D000910509F458C008958533910509F444C074
:1015E0008933910599F00895833E910531F138F4DE
:1015F000803E910591F0823E9105B1F00895863EBE
:10160000910511F1873E910541F1089520918202E3
:101610002370C9F080EE90E008952091820220FFAF
:1016200012C089E390E008952091820222FF0BC04E
:1016300024FF2EC090E080E008952091820222FDD8
:101640002AC024FDF7CF08952091820223FFFBCF0B
:1016500024FDF0CF87EE90E008952091820223FFD1
:10166000F0CF86EE90E008952091820225FD16C00D
:1016700008952091820225FD14C0089520918202D0
:1016800026FD12C008952091820226FD10C0089503
:1016900083EE90E0089582EE90E0089589E290E074
:1016A000089585E390E008958AE290E0089581E34B
:1016B00090E0C9CF08950F931F93CF938C01FB0146
:1016C0008281811106C0C1E08C2FCF911F910F91B3
:1016D0000895C0914D01C11125C00531104799F7FA
:1016E0000E945A0B81E080934D010E94E21E90936C
:1016F0004C0180934B0110924001109242011092D4
:10170000410110924401109243011092460110923F
:101710004501109248011092470110924A0110921F
:101720004901D2CF80914B0190914C010E94EE1E55
:10173000883C910540F680914001E82FF0E0EE0FE3
:10174000FF1FEF5BFE4F118300838F5F809340018B
:10175000C0E0BACF0C942E070C942F07CF93DF93E1
:1017600085B7806885BF85B7806885BFA3E2B1E093
:1017700048E251E0C1E0D0E08D91E82FE295EF70B2
:10178000F0E061A18F709E0101C0220F8A95EAF7F7
:10179000922F9095962391A382A1822B82A34A1720
:1017A0005B0751F7A4E1B1E061E070E08D91E82FB3
:1017B000E295EF70F0E041A18F709B0101C0220F14
:1017C0008A95EAF7922F9095942391A382A1822B78
:1017D00082A381E0A332B80749F710925901109211
:1017E000580110924F0110924E0110925B0110921D
:1017F0005A01109251011092500110925D01109205
:101800005C01109253011092520110925F011092EC
:101810005E011092550110925401109261011092D4
:1018200060011092570110925601DF91CF910C94F4
:10183000EF086F927F929F92AF92BF92CF92DF920A
:10184000EF92FF920F931F93CF93DF93CEE4D1E0FB
:1018500003E211E0EE24E394F12CBB24B394C8809E
:10186000D98019821882D8018D918D01E82FE295D7
:10187000EF70F0E091A18F70970101C0220F8A955F
:10188000EAF7892F822B81A382A1A22EA0948A211C
:1018900082A3B0EABA95F1F784E1682E81E0782E50
:1018A00090E080E0D3017D913D01472F42954F703C
:1018B00050E0DA0190969C90488159817F70D70161
:1018C00002C0AA0FBB1F7A95E2F7BD01692109F09A
:1018D0006FC0B701082E02C0660F771F0A94E2F7A7
:1018E000462B572B5983488301968F309105D1F6AB
:1018F00081A18A2181A382A1282B22A38881998199
:10190000C816D90641F0B09262010E94E21E90937F
:101910006401809363012296B1E008321B0709F04D
:101920009ECF80916201882391F180916301909113
:1019300064010E94EE1E069750F180914E01909135
:101940004F019093590180935801809150019091DB
:10195000510190935B0180935A01809152019091C3
:10196000530190935D0180935C01809154019091AB
:10197000550190935F0180935E0180915601909193
:1019800057019093610180936001109262010E945F
:10199000DD0881E0DF91CF911F910F91FF90EF90D3
:1019A000DF90CF90BF90AF909F907F906F90089501
:1019B00070E060E095CFE82FF0E0EE0FFF1FE85AEF
:1019C000FE4F80819181089508953EB1242F209586
:1019D00023233EB1432B3FB7F894FC01680F791FD6
:1019E000E617F70711F43FBF0895819198E04EB9CB
:1019F000000000C087FF2EB9880F000000C000C0A3
:101A000000C02EB900C09A9591F7EACF2DB1242BD2
:101A10002DB99B01220F331F620F731F0E94E50C2B
:101A200087EC90E00197F1F700C00000089544E0D2
:101A30000C94060DCF92DF92EF92FF920F931F93BB
:101A4000CF93DF93E901662309F466C0E42EF12CFD
:101A5000EFEFF0E0E61BF109EE9D8001EF9D100D28
:101A6000FE9D100D1124212FE12FFF27EE1AFF0AF2
:101A70005CE3C52ED12CB6010E948A2BFB01BC0170
:101A8000E69EC001E79E900DF69E900D1124B601D2
:101A90000E948A2BE230F10589F168F4812F262F0C
:101AA000210F309781F0242F461B319761F080E0A1
:101AB00020E040E008C0E430F10551F128F1842F26
:101AC000861B3597A1F7E42FF0E0E75EF44F4491D1
:101AD000E22FF0E0E75EF44F9491E82FF0E0E75E4C
:101AE000F44FE49149839883EA83DF91CF911F916A
:101AF0000F91FF90EF90DF90CF900895862F810F88
:101B0000E42F412F2E2FDFCFE42FE61B842FF9CFB8
:101B1000842F462F410FD7CF842F242FD4CF88E096
:101B200090E00C94C02BAB01BC0188E090E00C94D9
:101B3000DE2BE2E5F2E083E08083109253028FEF28
:101B40008283838360915202709153028091540288
:101B5000909155020C94930D80915202EAE5F2E0C7
:101B600080FF06C06CE070E08AE592E00C94170DEF
:101B7000118210821282339682E0EE37F807C1F7A5
:101B8000F1CFEAE5F2E0818360834283339692E00D
:101B9000EE37F907C1F70C94AC0DEF92FF920F935B
:101BA0001F93CF93DF9300D01F92CDB7DEB7182FCE
:101BB000E92EF62E042F8091520290915302A091AB
:101BC0005402B09155028093560290935702A0930D
:101BD0005802B09359028091520280FF1FC09E01AB
:101BE0002F5F3F4F812F9E2D0E941A0D809156022C
:101BF00010FB87F9809356021695809157028078E2
:101C0000812BE0FA87F980935702F09258020093F3
:101C100059024B8169818A810E94C10D0F900F90FA
:101C20000F90DF91CF911F910F91FF90EF9008954A
:101C30000F931F93CF93DF93EC01062F142F9091F6
:101C4000520290FF43C0892F8E77823021F5CE015A
:101C50000E94CD0D80915202C0FB87F98093520201
:101C6000C695809153028078C82BD0FBC7F9C093EA
:101C700053020093540210935502609152027091E6
:101C800053028091540290915502DF91CF911F91A0
:101C90000F910C94930D892F86958F732EE3280F47
:101CA0002F73243018F410915502D4CF865C8F73B3
:101CB000893080F6991F9927991FD0915302CD2F13
:101CC000CC0FC92BD7FBDD27D0F9C4CFDF91CF9143
:101CD0001F910F910895E2E5F2E02081221F222753
:101CE000221F30915302432F440F842F822B37FB46
:101CF000992790F9089668E671E00E949E2B43812F
:101D000062810C94180E20915202221F2227221F5A
:101D100030915302432F440F842F822B37FB992796
:101D200090F98830910540F4805A9E4F40915502B9
:101D3000609154020C94180E089768E671E00E94B6
:101D40009E2BF4CF60915402683F90F4685F8091BD
:101D50005202881F8827881F90915302292F220F33
:101D600097FB992790F940915502822B0C94180EFD
:101D70006FEFEDCF60915402683090F06850809121
:101D80005202881F8827881F90915302292F220F03
:101D900097FB992790F940915502822B0C94180ECD
:101DA00060E0EDCF40915502483F90F4485F80914C
:101DB0005202881F8827881F90915302292F220FD3
:101DC00097FB992790F960915402822B0C94180E7E
:101DD0004FEFEDCF40915502483090F04850809140
:101DE0005202881F8827881F90915302292F220FA3
:101DF00097FB992790F960915402822B0C94180E4E
:101E000040E0EDCF9091520290FF3BC0917881115C
:101E100026C09260909352026091520270915302D8
:101E200080915402909155020E94930D809152022C
:101E3000982F9E779230D9F410927A01881F8827C4
:101E4000881F90915302292F220F97FB992790F911
:101E50004091550260915402822B0C94180E8931E6
:101E600010F09063D7CF8F73880F982BD3CF982F14
:101E70009695925C9F73963108F791E090937A0162
:101E8000DDCF08958091250281608093250281E055
:101E900080937B010E94331E811104C00E940D1E9D
:101EA0000E94990D0E948F0D60935202709353020D
:101EB00080935402909355026E7761F40E94990DBD
:101EC0000E948F0D609352027093530280935402CC
:101ED0009093550281E080937A018091520280FFB5
:101EE00004C086958F730C94020F0895809152025E
:101EF00086958F738F5F893108F081E00C94020F13
:101F000090915202892F8E7F90FF816080935202C0
:101F10006091520270915302809154029091550247
:101F20000E94930D8091520280FF04C086958F73AA
:101F30000C94020F10927A012FEF80E792E021506B
:101F400080409040E1F700C000000C94AC0DCF93AE
:101F5000C82F80917801909179010E94EE1EEC2F9C
:101F6000F0E0EB5EF54FE491E817190609F010F583
:101F70000E94E21E9093790180937801E0917701AD
:101F8000F0E0E75EF54F449180915202881F882768
:101F9000881F90915302292F220F97FB992790F9C0
:101FA00060915402822B0E94CD0D809177018F5F4A
:101FB00080937701CF910895CF93C82F80917501B9
:101FC000909176010E94EE1EEC2FF0E0EE5EF54F50
:101FD000E491E817190609F0E8F40E94E21E9093D4
:101FE0007601809375014091550260915402809171
:101FF0007301909174010E94CD0D809173019091B5
:102000007401019668E671E00E948A2B9093740136
:1020100080937301CF910895CF92DF92FF920F9337
:102020001F93CF93DF93F82E8091710190917201ED
:102030000E94EE1EEF2DE695F0E0EE5EF54FE49186
:10204000E817190609F0A8F50E94E21E90937201A4
:10205000809371010AE512E0D0E0C0E088E6C82E66
:10206000DD24D39480916F01909170018C0F9D1F9E
:10207000B6010E948A2B980140915502609154024A
:102080000E941A0D6E960D5F1F4FC83681E0D8076B
:1020900049F70E94AC0D80916F0190917001F0FEA4
:1020A00010C00196BE010E948A2B9093700180930C
:1020B0006F01DF91CF911F910F91FF90DF90CF9033
:1020C00008950197F2CFAF92BF92CF92DF92EF9235
:1020D000FF920F931F93CF93DF93C82FFF24FA949F
:1020E00080FD02C0FF24F39480916D0190916E01F8
:1020F0000E94EE1EC695EC2FF0E0E15FF54FE491F3
:10210000E817190611F008F053C00E94E21E9093E0
:102110006E0180936D01CAE5D2E010E000E097E027
:10212000C92ED12C198218821A8287E0A82EB12CD0
:10213000E12C80916C018E0D87FD845F082E000CD0
:10214000990B08171907E9F4209155022A9DC0013F
:102150002B9D900D1124B6010E949E2B462F80913D
:102160005202881F8827881F90915302592F550FBC
:1021700097FB992790F99E0160915402852B0E944C
:102180001A0DEF0C81E0A81AB10899F60F5F1F4FE6
:1021900023960C30110531F60E94AC0D80916C0134
:1021A00091E0F91212C081110EC08BE080936C0196
:1021B000DF91CF911F910F91FF90EF90DF90CF9023
:1021C000BF90AF9008958150F1CF90E00196B80193
:1021D0000E949E2BEBCFBF92CF92DF92EF92FF92A5
:1021E0000F931F93CF93DF93CDB7DEB7A4970FB6AE
:1021F000F894DEBF0FBECDBF182F80916A01909179
:102200006B010E94EE1EE12FF0E0E45FF54FE491D8
:10221000E817190611F008F07AC00E94E21E9093A8
:102220006B0180936A018E010F5F1F4FF12CE12C2F
:102230006801D80111961C9211971C9212961C925B
:10224000B12C9091000180916901B99E800D1124FB
:102250008C300CF08BE087FD80E0082E000C990B91
:10226000E816F906A1F480915202881F8827881F7A
:1022700090915302592F550F97FB992790F9980188
:102280004091550260915402852B0E941A0DB3941F
:10229000B7E0BB12D6CFEFEFEE1AFE0A0D5F1F4F6D
:1022A000FCE0EF16F10429F62AE532E009E010E03F
:1022B0005CE0E52EF12CC801B7010E949E2BFC01C9
:1022C000EE0FFF1FE80FF91FEC0DFD1D8181D901F5
:1022D00011968C93119780818C93828112968C93A6
:1022E0000F5F1F4F2D5F3F4F0531110521F70E94F2
:1022F000AC0D90910001809169019130E1F48A3F29
:10230000B4F489EF809369018FEF80930001A49664
:102310000FB6F894DEBF0FBECDBFDF91CF911F91F6
:102320000F91FF90EF90DF90CF90BF900895815074
:1023300080936901ECCF83312CF082E180936901B5
:1023400081E0E3CF8F5FF4CFCF93DF93809167017C
:10235000909168010E94EE1E883E934028F10E94F1
:10236000E21E9093680180936701809165019091CE
:1023700066010196817099279093660180936501AB
:10238000CAE5D2E09E01409155026091540290E06E
:1023900080E00E941A0D239682E0CE37D80791F78D
:1023A000DF91CF910C94AC0DDF91CF910895809186
:1023B0007A01882371F18091520286958F739EE392
:1023C000980F9F73943018F482500C94A70F9AE3DF
:1023D000980F9F73933018F486500C94DC0F97E39A
:1023E000980F9F73963018F489500C940C1091E359
:1023F000980F9F73963018F48F500C9463109BE2E3
:10240000980F9F73933018F485510C94EB100C9433
:10241000A411089590938101809380010895E09123
:102420008001F0918101309721F00190F081E02D41
:10243000099480E00895E0918001F0918101309746
:1024400021F00280F381E02D09940895E09180014C
:10245000F0918101309721F00480F581E02D0994FD
:10246000089520917E0130917F012817390771F07E
:1024700090937F0180937E01E0918001F091810132
:10248000309721F00680F781E02D0994089520917E
:102490007C0130917D012817390771F090937D01FF
:1024A00080937C01E0918001F0918101309721F0CF
:1024B0000084F185E02D0994089508950C945D122F
:1024C0000E94D91E0E94AE0B0E94AA1F0E94DB220E
:1024D0000C94420F5F926F927F928F929F92AF9275
:1024E000BF92CF92DF92EF92FF920F931F93CF9301
:1024F000DF93CDB7DEB72A970FB6F894DEBF0FBED5
:10250000CDBF0E94190C93E8A92E91E0B92E10E0DE
:1025100000E088248394912C502E802F0E94DB0CA5
:102520007C01F501C190D1905F01C816D90609F46C
:102530005EC08091250281FD0E94E40C90E080E065
:10254000CE24DF243401082E02C0660C771C0A94C6
:10255000E2F7960126213721232B09F443C08E830D
:102560005F82E620F72081E0EF2809F480E0888789
:102570000E94E21E8160782F9A8789874E815F8151
:1025800068858A850E942413000F111FF801ED57FA
:10259000FE4F8081918168267926718260820E9437
:1025A0002D220E940F12909182018917B9F10E9489
:1025B0000F12809382012A960FB6F894DEBF0FBEE9
:1025C000CDBFDF91CF911F910F91FF90EF90DF90E2
:1025D000CF90BF90AF909F908F907F906F905F90C3
:1025E0000C94280901968F30910509F0ABCF0F5F4D
:1025F0001F4F0530110509F08FCF8FEF89838A8334
:102600001B820E94E21E8160782F9D838C8349810A
:102610005A816B818D810E942413C1CF2A960FB6F7
:10262000F894DEBF0FBECDBFDF91CF911F910F9108
:10263000FF90EF90DF90CF90BF90AF909F908F90E2
:102640007F906F905F900895CF93DF93CDB7DEB703
:102650002B970FB6F894DEBF0FBECDBF4F835887C0
:1026600069877A878B871E821D8285E0FE013796F7
:10267000DE01119601900D928A95E1F749815A8108
:102680006B817C818D819E812B960FB6F894DEBF85
:102690000FBECDBFDF91CF910C94C119882309F4EF
:1026A000D8C0823871F40E940F1281FDD2C089E334
:1026B0000E94161D0E94DE1D89E30E94531D0C948A
:1026C000DE1D833859F40E940F1280FDC2C083E5DD
:1026D0000E94161D0E94DE1D83E5EFCF843859F459
:1026E0000E940F1282FDB5C087E40E94161D0E9451
:1026F000DE1D87E4E2CF9CEF980F913A18F40E9418
:10270000161DDDCF90E2980F983050F4877091E05D
:1027100001C0990F8A95EAF7892F0E94951DCFCFA6
:102720009BE5980F933070F4853A31F0863A39F092
:1027300083E890E00C94311281E890E0FBCF82E8CE
:1027400090E0F8CF98E5980F953108F082C0883A6C
:1027500009F440C0893A09F440C08A3A09F440C0FB
:102760008B3A09F440C08C3A09F440C08B3B09F421
:1027700040C08C3B09F440C08D3A09F440C0803B16
:1027800009F440C08E3A09F440C08F3A09F440C0C1
:10279000813B09F440C0823B09F440C0833B09F40B
:1027A00040C0843B09F440C0853B09F440C0863BEF
:1027B00009F440C0873B09F440C0883B09F440C09D
:1027C000893B09F440C08A3B09F440C090E080E0B6
:1027D0000C94471282EE90E0FBCF89EE90E0F8CFA8
:1027E0008AEE90E0F5CF85EB90E0F2CF86EB90E0BB
:1027F000EFCF83EB90E0ECCF84EB90E0E9CF87EB79
:1028000090E0E6CF8CEC90E0E3CF8DEC90E0E0CF71
:1028100083E891E0DDCF8AE891E0DACF82E991E0C8
:10282000D7CF84E991E0D4CF81E292E0D1CF83E2A7
:1028300092E0CECF84E292E0CBCF85E292E0C8CFA7
:1028400086E292E0C5CF87E292E0C2CF8AE292E0D0
:10285000BFCF0895882309F44BC0823871F40E94D9
:102860000F1281FF45C089E30E94161D0E94DE1DE4
:1028700089E30E94531D0C94DE1D833859F40E9495
:102880000F1280FF35C083E50E94161D0E94DE1DD9
:1028900083E5EFCF843859F40E940F1282FF28C0DD
:1028A00087E40E94161D0E94DE1D87E4E2CF9CEFA4
:1028B000980F913AF0F290E2980F983050F48770A8
:1028C00091E001C0990F8A95EAF7892F0E949B1D1C
:1028D000D2CF9BE5980F933020F490E080E00C94E9
:1028E0003112885A853120F490E080E00C94471230
:1028F0000895882321F00E94951D0C94DE1D0895F3
:10290000882321F00E949B1D0C94DE1D08958F9258
:102910009F92AF92BF92DF92EF92FF920F931F931D
:10292000CF93DF937C01D62FC72FFC010581029541
:102930000F70128111110E94B41D0E940F1DD82E1C
:10294000882371F0112321F180E28D0F883000F18E
:1029500082E00E94F91C0E940F1D91E0D82ED9261A
:10296000EC2FE295EF70F0E0E854FB4E0C94B22BA4
:10297000CA14CA141A151A155C157815F714F71429
:102980008315F7141B161B168E169716F714B71619
:10299000D12CE6CF0C2F0F70C07F11F00295007F75
:1029A0001123A9F0002359F080E28D0F883010F038
:1029B000D11109C0802F0E94951D0E94DE1D8D2F10
:1029C0000E944E1314C0802F0E94A61DF6CF8D2F9B
:1029D0000E942A14002359F080E28D0F883010F0F5
:1029E000D11124C0802F0E949B1D0E94DE1DDD207E
:1029F00009F4C4C10E94EC1C80FDC0C1F701128221
:102A00000E94E61C0E94601BC7010E94CA160E9419
:102A1000E61CDF91CF911F910F91FF90EF90DF9017
:102A2000BF90AF909F908F900C94811B802F0E943D
:102A3000AC1DDBCFFC2FFF70BF2EC07FC03219F062
:102A4000B29480EFB822DD2369F0D13029F111234F
:102A500069F1002359F0F701858180FFB0CF8F70B5
:102A6000858304C0112361F0011104C08B2D0E94E5
:102A70007914BDCF8B2D0130D1F70E94C81DB7CF7F
:102A8000011106C00E94CB1D8B2D0E948014AFCF78
:102A9000013009F4ACCFF6CF112321F0063008F055
:102AA000A6CFE4CF053008F0A2CFEECF002361F32C
:102AB0008D2F0E942A149BCF8C2F8695869583702C
:102AC00069F0813009F093CF8D2F9C2F93701111F5
:102AD00002C090E080E00E94471289CF8D2F9C2F8A
:102AE0009370111102C090E080E00E9431127FCFFC
:102AF0008D2F112329F00E9436210E94222277CFA8
:102B00000E949E21FACF8C2F837009F047C01111CB
:102B10006ECF2D2F229526952770220F220F6D2F15
:102B20006F70862E912CB12CA12C022E04C0880C23
:102B3000991CAA1CBB1C0A94D2F760E070E0CB0180
:102B4000D4FF0FC06FE070E080E090E004C0660F3B
:102B5000771F881F991F2A95D2F7609570958095E9
:102B60009095C695C695C370C23051F080F468291F
:102B700079298A299B29C13071F00E94091B37CF1E
:102B8000682979298A299B290E94251B30CF0E9418
:102B9000091BC501B4010E94ED1A29CF86951123A6
:102BA00011F08C2F8170882309F421CF2D2F2295CD
:102BB00026952770220F220F6D2F6F70862E912C75
:102BC000B12CA12C022E04C0880C991CAA1CBB1C81
:102BD0000A94D2F760E070E0CB01D4FF0FC06FE041
:102BE00070E080E090E004C0660F771F881F991F97
:102BF0002A95D2F76095709580959095C695C69563
:102C0000C370C23051F080F4682979298A299B2940
:102C1000C13071F00E94E31BEACE682979298A2924
:102C20009B290E94FF1BE3CE0E94E31BC501B40158
:102C30000E94C71BDCCEE0E2ED0FE53108F062C078
:102C4000F0E0EB5DF94E0C94B22B3A163A163A16B8
:102C50003A163A163A163A163A163A163A163A16F4
:102C60003A163A163A163A163A16471655165C169A
:102C700063166D16DF708C2F8F71112321F00E9467
:102C8000601B8D2FF4CE0E94811B8D2FFECE112351
:102C900041F0053008F0ABCE8C2F8F710E94A61B3F
:102CA000A6CE063008F0A3CEF7CF8C2F8F7111235C
:102CB00039F00E94601B9BCE8C2F8F711123C9F3BA
:102CC0000E94811B94CE112329F08C2F8F710E94BA
:102CD0004B1B8DCE0E94411B8ACE112349F0CF7130
:102CE0008C2F0E94601B63E08C2F0E94F01C7FCE13
:102CF00081E00E94F91C023008F479CE82E00E9443
:102D0000F91C75CE112329F0011159CE8C2F8F712A
:102D1000D0CF0111CDCE8C2F8F71D2CF4C2F4F70D1
:102D20006D2FC7010E942B070E946A1A60CE1111F5
:102D30005ECECF70C230A9F040F4CC2379F0C13020
:102D400009F055CE0E94042352CEC33069F0C4303E
:102D500009F04DCE8D2F0E94532349CE0E94EC22C4
:102D600046CE0E941D2343CE0E94302340CE4C2FDE
:102D70004F706D2FC7010E942A0939CEDF91CF9184
:102D80001F910F91FF90EF90DF90BF90AF909F90B9
:102D90008F9008950F931F93CF93DF93EC01988149
:102DA00089812B813C81232B39F08F3F19F481E0FD
:102DB0009F3F19F080E001C081E080FD17C0CE0187
:102DC0000E944A07882391F0688179818A810E9454
:102DD000C21C8C010E941B1C0E94E21AB801CE0189
:102DE000DF91CF911F910F910C948714DF91CF91B8
:102DF0001F910F9108950E94B41D0E94C51D0E944D
:102E0000871D0E94DE1D0E94CF220E94222290E098
:102E100080E00E94311290E080E00C9447120E9402
:102E2000A31D0C94FB160E94B81CE92FE295EF70CD
:102E3000E250EE30E0F4F0E0E05EF84E0C94B22B9D
:102E40002E172E1737173717391737173717371722
:102E50002E172E173E17371737173E17803F19F0DA
:102E600020F4803E20F481E00895843FE1F380E087
:102E70000895803EC0F3813FD1F7F5CF93FB8827BB
:102E800080F90895CF93DF9300D000D01F92CDB783
:102E9000DEB70F900F900F900F900F90DF91CF91B2
:102EA0000895CF93DF9300D000D000D0CDB7DEB728
:102EB00026960FB6F894DEBF0FBECDBFDF91CF913F
:102EC00008951F93CF93DF93C0918E0116E08091F8
:102ED0008F018C1304C0DF91CF911F910895D0E032
:102EE0001C9FF0011D9FF00D1124E057FE4F408103
:102EF000518162817381848195810E94511721964D
:102F0000C770E5CF4091C0015091C1016091C201ED
:102F10007091C3018091C4019091C5010C94511727
:102F20001F93CF93DF938091C501807FD1F480916F
:102F3000C2018823B1F080918E01D0918F01B091B0
:102F4000C001C091C1014091C3015091C401A1E0F1
:102F5000BF3F09F0A0E0BA016095709516E0D81364
:102F600004C0DF91CF911F91089521E041155105D3
:102F700021F02A2FCF3F09F020E090E020FD38C05B
:102F8000189FF001199FF00D1124E057FE4F218189
:102F90002C132EC020812B132BC02281211128C07D
:102FA000238134812417350700F1241B350B283C7D
:102FB0003105F0F42091C5012F7020612093C501E7
:102FC00026E0289FF001299FF00D1124EB56FE4FBB
:102FD00080818F708061808380EC91E00E94CA16AE
:102FE000DF91CF911F910C946117260F371FDFCF10
:102FF00001968770B4CFAF92BF92CF92DF92EF92DB
:10300000FF920F931F93CF93DF93CDB7DEB76197F6
:103010000FB6F894DEBF0FBECDBF8C0185E0F8017E
:10302000DE011D9601900D928A95E1F7D8014C9131
:1030300011965C9111971296EC903091C0016091BD
:10304000C1018091C3019091C40121E0009731F04A
:103050006F3F19F421E03F3F09F020E0B22FB1703B
:10306000BB2E20FD80C1F801C380D480A090C20196
:10307000AA2009F427C1C816D906D0F1D601A81B89
:10308000B90BCD01FF24F394883C910508F0F12C95
:103090008091C501982F907FFF2009F4CAC091113B
:1030A00087C0FE2C651329C0341327C0E11025C04A
:1030B0008F7080618093C5010E94821780EC91E03F
:1030C0000E94CA168091C501F80185838F2D6196F3
:1030D0000FB6F894DEBF0FBECDBFDF91CF911F9129
:1030E0000F91FF90EF90DF90CF90BF90AF90089539
:1030F000809590958C0D9D1DC5CF81E0CD2831F038
:103100005F3F19F481E04F3F09F080E080FD24C06B
:1031100081E08E25F82FF170DF2E80FF3FC0809177
:103120008E0120918F0136E0821318C04D875E8793
:103130008D859E850E94B81C292F22952F702230E4
:1031400008F1243030F59F7009F1D80115969C9153
:10315000907FE1F4FB2CBACF80E0DCCF90E0389F89
:10316000F001399FF00D1124E057FE4F6181561395
:1031700006C06081461303C062816E110FC00196C4
:103180008770D2CF9F7011F0882321F3805E883042
:1031900008F3C8010E94CA16BD2CDCCFEE2009F44A
:1031A00095CF8091C50181608093C501F12C8ECFB0
:1031B000651312C0341310C0E1100EC0F8018583EE
:1031C000C8010E94CA1686E0F801A0ECB1E00190A7
:1031D0000D928A95E1F741C04D875E878D859E856A
:1031E0000E941317882309F4C8C0EE2009F4C5C053
:1031F0008091C501803270F02091C0013091C101F1
:1032000038872F831986DB86CA868C87CE0107967E
:103210000E94CA1686E0F801A0ECB1E001900D9280
:103220008A95E1F70E9490170E948217FF24F39479
:103230004DCF911115C07C2DD98AC88A6E2D8989F0
:103240000E94421780EC91E00E94CA1686E0E0ECF2
:10325000F1E0DF011D928A95E9F70E94821736CFCF
:10326000651312C0341310C0E1100EC0F80185833D
:10327000C8010E94CA16E0ECF1E086E0DF011D9271
:103280008A95E9F7FA2C22CF4D875E878D859E853A
:103290000E941317882309F470C0EE2009F46DC052
:1032A0008091C501803208F4B5CF2091C0013091E2
:1032B000C1013A8329831B82DD82CC828E83CE01B9
:1032C0000196A6CFC816D90638F1F601E81BF90B0E
:1032D000CF01F12C883C910508F03DC0FE2CEE207A
:1032E00009F44BC0651326C0341324C08091C50176
:1032F00080FD17C0982F907FA1F0D80115968C9370
:103300001597903F09F45CCF982F907F905F8F7056
:10331000892B15968C9354CF809590958C0D9D1D7F
:10332000D8CF86E0F801A0ECB1E001900D928A952B
:10333000E1F7CCCE4D875E878D859E850E94131761
:10334000811168CF8091C50181608093C501C8015A
:103350000E94CA16BBCE7C2DD98AC88A6E2D898957
:103360000E94421773CFEE2041F04D875E878D8516
:103370009E850E94131781114DCFC8010E94CA1665
:1033800055CF1F93CF93DF93CDB7DEB72C970FB6F2
:10339000F894DEBF0FBECDBF4F83588769877A8709
:1033A0008B879C87CE0107960E94FB17882309F420
:1033B00042C09F8188852A853B85232B39F08F3F2A
:1033C00019F481E09F3F19F080E001C081E080FDA9
:1033D00008C04F81588569857A858B859C850E94B8
:1033E000511716E080918E0190918F01891709F491
:1033F00067C0819FC001112480579E4F0E94FB1718
:10340000882309F45DC0E0918E011E9FF001112414
:10341000E057FE4F408151816281738184819581A3
:103420000E94511780918E0190E001968770992734
:1034300080938E01D7CF86E0FE013796DE0111968C
:1034400001900D928A95E1F79F8188852A853B85B9
:10345000232B39F08F3F19F481E09F3F19F080E072
:1034600001C081E080FDBDCF20918F0130E0C90116
:1034700001968770992740918E014817190699F097
:1034800096E0929FD001939FB00D1124A057BE4F9C
:10349000FE01319601900D929A95E1F780938F018C
:1034A0000E9461179ECF0E940F1710928F011092F9
:1034B0008E0186E0E0ECF1E0DF011D928A95E9F7EC
:1034C0002C960FB6F894DEBF0FBECDBFDF91CF9123
:1034D0001F910895EF92FF920F931F93CF93DF9365
:1034E0008C01892B81F0F12CEE24E394E8012196E4
:1034F000F8018491843770F4843008F05FC0813023
:10350000B1F08230A1F1DF91CF911F910F91FF9027
:10351000EF900895853709F44CC008F43DC09CE74E
:10352000980F903780F78F770E942A1449C00E5F5A
:103530001F4FFE01849190E2980F983060F48770DD
:10354000FE2D01C0FF0F8A95EAF78F2F0E94B71D4D
:103550000E94DE1D02C00E944E138F2D815030F25A
:10356000EFE9FFE03197F1F700C00000F7CF0E5F01
:103570001F4FFE01849190E2980F983050F48770AD
:10358000FE2D01C0FF0F8A95EAF78F2F0E94BD1D07
:10359000DFCF0E942A14E1CF0E5F1F4FFE01C491BE
:1035A000C150D8F28FE99FE00197F1F700C0000009
:1035B000F7CF0E5F1F4FFE01F490CFCF0E944E1346
:1035C0008E01CBCF08956093FC017093FD01809331
:1035D000FE019093FF010C94FB160F931F93009133
:1035E000FC011091FD012091FE013091FF01DC01F1
:1035F000CB01802B912BA22BB32B8093FC019093BA
:10360000FD01A093FE01B093FF011F910F910C9457
:10361000FB160F931F930091FC011091FD01209167
:10362000FE013091FF01DC01CB0180239123A22315
:10363000B3238093FC019093FD01A093FE01B0930E
:10364000FF011F910F910C94FB160F931F93009194
:10365000FC011091FD012091FE013091FF01DC0180
:10366000CB0180279127A227B3278093FC01909359
:10367000FD01A093FE01B093FF011F910F910C94E7
:10368000FB161092F8011092F9011092FA011092B3
:10369000FB010C94FB1641E050E060E070E004C0D8
:1036A000440F551F661F771F8A95D2F74093F80184
:1036B0005093F9016093FA017093FB010C94FB168F
:1036C00041E050E060E070E004C0440F551F661F09
:1036D000771F8A95D2F78091F8019091F901A09116
:1036E000FA01B091FB01842B952BA62BB72B80936D
:1036F000F8019093F901A093FA01B093FB010C94A7
:10370000FB1641E050E060E070E004C0440F551F3C
:10371000661F771F8A95D2F74095509560957095F2
:103720008091F8019091F901A091FA01B091FB010B
:1037300084239523A623B7238093F8019093F9015E
:10374000A093FA01B093FB010C94FB1641E050E00A
:1037500060E070E004C0440F551F661F771F8A9514
:10376000D2F78091F8019091F901A091FA01B091FE
:10377000FB0184279527A627B7278093F80190930C
:10378000F901A093FA01B093FB010C94FB160F937F
:103790001F930091F8011091F9012091FA013091E5
:1037A000FB01DC01CB01802B912BA22BB32B80934F
:1037B000F8019093F901A093FA01B093FB011F91D6
:1037C0000F910C94FB160F931F930091F801109129
:1037D000F9012091FA013091FB01DC01CB0180233A
:1037E0009123A223B3238093F8019093F901A0932E
:1037F000FA01B093FB011F910F910C94FB160F93EC
:103800001F930091F8011091F9012091FA01309174
:10381000FB01DC01CB0180279127A227B3278093EE
:10382000F8019093F901A093FA01B093FB011F9165
:103830000F910C94FB1608952FE0929F800D112498
:10384000982F977071E001C0770F9A95EAF78695E7
:103850008695869525E0829FC001112450E040E0C6
:10386000A62FB0E0FC01E40FF51FEA53FE4F608184
:103870009D01042E02C0369527950A94E2F7217027
:10388000219526272723262720834F5F5F4F45302A
:10389000510541F708952FE0929F800D1124982F34
:1038A000977086958695869525E0829FA0011124C4
:1038B00070E060E080E0FA01E60FF71FEA53FE4F88
:1038C000208130E0092E02C0369527950A94E2F750
:1038D00021703327062E01C0220F0A94EAF7822BAB
:1038E0006F5F7F4F6530710531F70895BF92CF92BA
:1038F000DF92EF92FF920F931F93CF93DF938C0190
:10390000C090F801D090F901E090FA01F090FB012D
:103910008091FC019091FD01A091FE01B091FF0109
:10392000C82AD92AEA2AFB2ACFE1D0E0BC2ED70147
:10393000C6010C2E04C0B695A795979587950A9455
:10394000D2F780FD0EC0219788F7B12C8B2DDF9127
:10395000CF911F910F91FF90EF90DF90CF90BF908C
:103960000895B8018C2F0E944709019761F3EECFAB
:10397000CF93DF93EC010E94761CBE01DF91CF91C3
:103980000C9447091F93CF93DF93EB0190918D0126
:10399000992331F0CB01DF91CF911F910C94B81C8A
:1039A000882379F0CB010E94761C182F682FCE0156
:1039B0000E941C1CBE01812FDF91CF911F910C949E
:1039C0004709CB010E944B1C182FF4CF80910002B5
:1039D0008595859585950895809100028770089555
:1039E00098E0899F90011124622B609300020C944F
:1039F000601B909100028095892380930002282FFC
:103A0000277061F4282F082E000C330B9217130631
:103A100029F08595859585950C94811B0895909145
:103A20000002977081E009F480E0089590911301FD
:103A30009923E1F09091820297FF18C0E82FE69554
:103A4000E695E695EF3139F12091010130910201BF
:103A5000E20FF32FF11D877021E030E001C0220F4B
:103A60008A95EAF78181822B818308952091010153
:103A700030910201F90132969FEF40E05191851794
:103A800051F09F3F19F4511101C0942F4F5F4E31F7
:103A9000A9F79F3F09F40895290F311D97FD3A9525
:103AA000F90182830895909113019923F1F0909187
:103AB000820297FF1AC0E82FE695E695E695EF316A
:103AC00029F12091010130910201E20FF32FF11D44
:103AD000282F277081E090E001C0880F2A95EAF72F
:103AE00080959181892381830895209101013091EE
:103AF0000201F9013296205E3F4F9191891303C074
:103B0000DF0111971C92E217F307B9F7089581E0DE
:103B100090E0E0910101F0910201E80FF91F10829D
:103B2000019680329105A9F7089590912402892B7E
:103B3000809324020895982F9095809124028923E0
:103B400080932402089510922402089590912302F4
:103B5000892B809323020895982F909580912302BA
:103B6000892380932302089510922302089590914F
:103B70002202892B809322020895982F909580919C
:103B8000220289238093220208951092220208952E
:103B9000809301020895109201020895209101017D
:103BA00030910201F9013196205E3F4F80E0919102
:103BB00091118F5FE217F307D1F70895E0910101AA
:103BC000F0910201809124028083E0910101F09143
:103BD0000201808190912302892B8083E091010171
:103BE000F0910201808190912202892B8083909133
:103BF0000102992361F0E0910101F09102018081BD
:103C0000892B80830E94CE1D811110920102809128
:103C10000101909102010C941B126DEE7EEF90E079
:103C200080E00E94EA2B60E082E090E00E94CC2BD2
:103C300060E083E090E00E94CC2B60E084E090E0C4
:103C40000E94CC2B60E085E090E00E94CC2B60E0ED
:103C500086E090E00E94CC2B40E050E0BA0188E082
:103C600090E00C94DE2B90E080E00E94C62B21E0D7
:103C70008D3E9E4F09F020E0822F089582E090E073
:103C80000C94B82B682F82E090E00C94CC2B83E04E
:103C900090E00C94B82B682F83E090E00C94CC2B30
:103CA00084E090E00C94B82B682F84E090E00C94B2
:103CB000CC2B86E090E00C94B82B682F86E090E047
:103CC0000C94CC2B80918902843051F11092260201
:103CD00088E190E020E40FB6F894A8958093600006
:103CE0000FBE2093600080E00E94F30880E00E94F5
:103CF000280983B7817F846083BF83B7816083BFD6
:103D00007894889583B78E7F83BF0FB6F894A89573
:103D100080916000886180936000109260000FBE07
:103D2000089508950895CF930E94911E0E94190C42
:103D30000E94921EC0E08C2F0E94DB0C892B31F474
:103D4000CF5FC530C1F780E0CF91089581E0FCCF0F
:103D50000E940F170E94DB220E940F120C94280968
:103D60001F920F920FB60F9211248F939F93AF93D0
:103D7000BF9380912602811113C080917E029091A1
:103D80007F02A0918002B09181024196A11DB11DD8
:103D900080937E0290937F02A0938002B093810271
:103DA000BF91AF919F918F910F900FBE0F901F9079
:103DB000189582E084BD93E095BD9AEF97BD8093FE
:103DC0006E0008952FB7F89480917E0290917F0243
:103DD000A0918002B09181022FBF0895CF92DF920F
:103DE000EF92FF920F931F932FB7F89440917E02AA
:103DF00050917F0260918002709181022FBF6A0111
:103E00007B01EE24FF248C0130E020E0C016D106B7
:103E1000E206F30650F0481B590BCA011F910F919F
:103E2000FF90EF90DF90CF90089541505109F3CF6C
:103E30001F920F920FB60F9211248F939F93AF93FF
:103E4000BF9380917E0290917F02A0918002B091F9
:103E500081020196A11DB11D80937E0290937F0285
:103E6000A0938002B0938102BF91AF919F918F91F7
:103E70000F900FBE0F901F9018950E945E27F89428
:103E80002FEF87EA91E6215080409040E1F700C093
:103E9000000087E090EBDC01809392029093930204
:103EA000A0939402B093950288E19CE00FB6F89439
:103EB000A895809360000FBE90936000FFCFAF92F3
:103EC000BF92CF92DF92EF92FF920F931F93CF9307
:103ED000C0E0CC24C394D12CE82EF12C8C2F0E946E
:103EE000DB0C5C0110E000E0C601002E02C0880F70
:103EF000991F0A94E2F78A219B21892B99F40F5F7D
:103F00001F4F0F30110581F7CF5FC53039F780E0C3
:103F1000CF911F910F91FF90EF90DF90CF90BF90C6
:103F2000AF900895602F7C2F80E00E942B09E81647
:103F3000F90629F781E0ECCFCF93C82F8CE20E94DD
:103F40005F1F882321F08C2FCF910C945F1F80E09E
:103F5000CF910895CF930E94331E811102C00E9419
:103F60000D1EC5E608C00E94190C8FE39CE901975D
:103F7000F1F700C00000C150B1F789E20E949C1F18
:103F80008111EFC08AE20E949C1F81110E940D1EC8
:103F900085E00E949C1F81110E943D1F0E943E1ED1
:103FA0008093250287E00E949C1F882371F08BE19B
:103FB0000E949C1F882309F4B1C090912502892F8B
:103FC0008D7F91FF826080932502809125020E945F
:103FD000421E0E94501E90E09093830280938202C2
:103FE00080EE0E949C1F882341F090918202892FCD
:103FF0008E7F90FF81608093820289E30E949C1FE4
:10400000882341F090918202892F8D7F91FF8260F9
:104010008093820282EE0E949C1F882341F090913F
:104020008202892F8B7F92FF84608093820286EECA
:104030000E949C1F882341F090918202892F877FE4
:1040400093FF88608093820283EE0E949C1F8823E6
:1040500041F090918202892F8F7E94FF806180933E
:10406000820285E30E949C1F882341F09091820286
:10407000892F8F7D95FF80628093820281E30E9469
:104080009C1F882341F090918202892F8F7B96FF9D
:1040900080648093820281E10E949C1F882341F00A
:1040A00090918202892F97FB87F980588093820232
:1040B000809182020E94541E87E20E949C1FC82F9A
:1040C0008EE10E949C1F8111C2608FE10E949C1FA3
:1040D0008111C46080E20E949C1F8111C86081E24E
:1040E0000E949C1F8111C06182E20E949C1F81116D
:1040F000C06283E20E949C1F8111C06484E20E941E
:104100009C1F882341F1C0688C2F0E944B1E6C2F8E
:1041100070E090E080E0CF910C94E31A8EE00E9472
:104120009C1F882339F090912502892F8B7F92FF65
:10413000846049CF80E10E949C1F909125028823D2
:1041400029F0892F877F93FF88603DCF892F8E7F4D
:1041500090FF816038CFC111D7CF0E94471E682FD2
:10416000D7CFCF9108958091290280FF12C060912E
:10417000060185E0689FB0011124759567957595D6
:10418000679560387105A8F561157105A1F1862F55
:10419000089581FF09C06091060185E0689FB00124
:1041A000112475956795EDCF82FF07C060910601D8
:1041B00085E0689FB0011124E4CF20912A022223D8
:1041C000A9F0909105016091060185E0689FB0011A
:1041D00011242917B0F6269FA001279F500D112406
:1041E000692F70E0CA010E949E2BCBCF65E070E082
:1041F000CECF8FE7089581E008958091290280FF56
:104200000CC06091040170E0759567957595679590
:104210006115710549F1862F089581FF06C06091EF
:10422000040170E075956795F3CF6091040182FDFC
:104230000BC090912A029923A1F060910301809113
:104240000401961738F0682F70E06038710500F3AC
:104250008FE70895899FC001112470E00E949E2B72
:10426000F4CF61E070E0D7CF81E00895803F31F472
:104270000E94B320819580932D020895813F19F407
:104280000E94B320F8CF823F31F40E94B320819581
:1042900080932C020895833F19F40E94B320F8CF35
:1042A000893F29F40E94FD2080932E0208958A3FC1
:1042B00021F40E94FD208195F7CF8B3F31F40E94BD
:1042C000FD20819580932F0208958C3F19F40E9460
:1042D000FD20F8CF843F31F480912B0281608093E0
:1042E0002B020895853F21F480912B028260F7CF45
:1042F000863F21F480912B028460F1CF873F21F427
:1043000080912B028860EBCF883F21F480912B02B3
:104310008061E5CF8D3F31F48091290281608093E7
:10432000290208958E3F21F4809129028260F7CFFF
:104330008F3FB9F7809129028460F1CF803FC1F4AB
:1043400080912D0287FD10922D0280912C02811107
:104350000EC080912D0281110AC080912E02811120
:1043600006C080912F02811102C010922A02089586
:10437000813F29F480912D0218162CF3E6CF9091FD
:104380002C02823F29F497FFE0CF10922C02DDCF60
:10439000833F19F41916CCF3D8CF893F39F48091B3
:1043A0002E02181694F610922E02CFCF8A3F29F4CF
:1043B00080912E0287FFC9CFF6CF8B3F39F48091D1
:1043C0002F0287FFC2CF10922F02BFCF8C3F29F45C
:1043D00080912F021816BCF3B8CF843F31F480913E
:1043E0002B028E7F80932B02B0CF853F21F48091EA
:1043F0002B028D7FF7CF863F21F480912B028B7F9C
:10440000F1CF873F21F480912B02877FEBCF883F4C
:1044100021F480912B028F7EE5CF8D3F31F4809186
:1044200029028E7F8093290290CF8E3F21F48091C4
:1044300029028D7FF7CF8F3F09F087CF8091290226
:104440008B7FF0CF8BE292E00E9426120E94E21E48
:10445000909328028093270208951F93CF93DF93B0
:1044600080912702909128020E94EE1EAC0190914B
:104470002A022091070130E0911106C02091080125
:104480008AE0289F900111244217530780F0809101
:104490002C02C0912D0210912E02D0912F02811179
:1044A0000AC0C11178C0111176C0D11174C0DF915A
:1044B000CF911F9108959F3F19F09F5F90932A021B
:1044C000181624F40E94B32080932C0280912C02B1
:1044D00087FF05C00E94B320819580932C021C1693
:1044E00024F40E94B32080932D0280912D0287FF37
:1044F00005C00E94B320819580932D0260912C020B
:10450000662331F1C0912D02CC2311F1062E000C4F
:10451000770B880B990B0E94912A23E333E343E343
:104520005FE30E94F52A0E94592A60932C026C2FA7
:10453000CC0F770B880B990B0E94912A23E333E36E
:1045400043E35FE30E94F52A0E94592A60932D02FB
:10455000111624F40E94FD2080932E0280912E02D9
:1045600087FF05C00E94FD20819580932E021D16B5
:1045700024F40E94FD2080932F0280912F0287FF58
:1045800005C00E94FD20819580932F02DF91CF917D
:104590001F910C9422229F3F09F08FCFA0CF85E07E
:1045A000EBE2F2E0DF011D928A95E9F710922A0210
:1045B0001092290208950E94331E811102C00E94A8
:1045C0000D1E0E94591E8093840280FF03C08695B1
:1045D0000C94F30880E0FCCF80918402982F96958C
:1045E000953030F49F5F990F8170892B80938402FE
:1045F000809184028160809384020E945D1E80917C
:10460000840286950C94F30880918402982F9E7FF3
:1046100079F08250809384028E7F91E009F490E0DB
:104620008091840290FB80F9809384020E945D1E39
:104630008091840286950C94F30890918402892FCE
:104640008E7F90FF8160809384020E945D1E809126
:10465000840280FF03C086950C94F30880E0FCCFB1
:1046600090918402892F86958F5F8F779170863025
:10467000B8F4880F892B80938402809184028E7F06
:1046800091E009F490E08091840290FB80F980939E
:1046900084020E945D1E8091840286950C94F3082A
:1046A00090938402EACF90918402292F2695822745
:1046B000880F9170982B909384029E7F21E009F4DB
:1046C00020E08091840220FB80F9809384020E9484
:1046D0005D1E8091840286950C94F30880915002AF
:1046E0000895CF93DF9300D01F92CDB7DEB79C0122
:1046F00080918902843019F593E099833B832A8362
:104700009093E9008FEF9091E800815095FD06C0ED
:1047100095ED9A95F1F700008111F5CF8091E800B1
:1047200085FF0DC050E040E063E070E0CE010196EF
:104730000E94CE258091E8008E778093E8000F904C
:104740000F900F90DF91CF910895CF93DF9300D01A
:104750001F92CDB7DEB720918902243031F522E0D7
:104760002983805891099B838A8383E08093E900A1
:104770008FEF9091E800815095FD06C095ED9A95D8
:10478000F1F700008111F5CF8091E80085FF0DC0A1
:1047900050E040E063E070E0CE0101960E94CE253B
:1047A0008091E8008E778093E8000F900F900F9033
:1047B000DF91CF9108959C01809189028430F9F4B2
:1047C00082E08093E9009FEF8091E800915085FDA1
:1047D00006C085ED8A95F1F700009111F5CF809123
:1047E000E80085FF0CC050E040E065E070E0C901E2
:1047F0000E94CE258091E8008E778093E80008958E
:10480000CF93DF93EC01809189028430F1F4909191
:1048100013019923E9F09091820297FF19C08093C8
:10482000E9008FEF9091E800815095FD06C095E179
:104830009A95F1F700008111F5CF8091E80050E0E2
:1048400040E060E270E085FD1AC0DF91CF910895ED
:1048500081E08093E9008FEF9091E800815095FD11
:1048600006C095ED9A95F1F700008111F5CF809182
:10487000E80085FFEACF50E040E068E070E0CE015C
:104880000E94CE258091E8008E778093E80080E238
:10489000FE01A0E3B2E001900D928A95E1F7D5CF39
:1048A00080918802811109C00E945E270E94BB2767
:1048B0008091E20084608093E20008951092880263
:1048C0000895089508950C94A81E42E061EC81E0DB
:1048D0000E94DC2642E061EC82E00E94DC2642E09D
:1048E00061EC83E00E94DC2642E261EC84E00C94FF
:1048F000DC2680918B02833009F455C030F481307E
:1049000071F1823009F491C008958A3009F47DC0B4
:104910008B3009F463C0893009F044C080918A0269
:10492000813209F03FC080918E0290918F020097F2
:1049300011F00397B9F58091E800877F8093E80034
:104940008091E80082FF2AC08091F100809350029C
:104950008091E8008B778093E8000C941027809179
:104960008A02813AF9F48091E800877F8093E80019
:1049700080918E0290918F02892B61F460E280E336
:1049800092E070E00E941D268091E8008B77809372
:10499000E800089560E090E080E0F3CF8091890224
:1049A0008111CECF089580918A02813AD9F7809102
:1049B0008E0290918F02892BA9F78091E800877F62
:1049C0008093E8008091E80080FFFCCF8091130184
:1049D0008093F1008091E8008E77BDCF80918A02AC
:1049E000813201F780918E0290918F02892BD1F64E
:1049F0008091E800877F8093E8000E9410278091D3
:104A00008C02809313010C940F1780918A028132DB
:104A100049F68091E800877F8093E8000E94102784
:104A200080918D0280935102089580918A02813A8B
:104A300009F0B8CF8091E800877F8093E8008091EB
:104A4000E80080FFFCCF80915102C2CF84B7877FFE
:104A500084BF0FB6F894A895809160008861809318
:104A60006000109260000FBE80E880936100109299
:104A700061000E945E120E945E270E94BB27809107
:104A8000E20084608093E20078940E943D2A0E94B4
:104A9000601289E091E00E940A12809189028530BB
:104AA00029F00E946A120E94D711F7CF0E94621E5D
:104AB00080918702882389F30E94931E882369F3DB
:104AC0000E94B825EACF292F33272330310579F109
:104AD00058F421303105F1F02230310519F190E020
:104AE00080E030E020E01AC02132310599F1223215
:104AF0003105A9F7643098F770E0FB01EE0FFF1F56
:104B0000E45DFE4F20813181685D7E4FFB01808135
:104B100090E004C082E190E026EB3CE0FA013183B2
:104B2000208308958DE690E029E43CE0F7CF9927B3
:104B30008130910561F028F0029789F6E9E1FCE007
:104B400002C0E5E4FCE0849190E09F01E7CFEDE254
:104B5000FCE0F9CF643008F0C2CFE62FF0E0EE0FB2
:104B6000FF1FEC5CFE4F2081318189E090E0D6CFC1
:104B700080E189BD82E189BD09B400FEFDCF80914D
:104B8000D8008F7D8093D8008091E0008260809370
:104B9000E0008091E00081FDFCCF0895AF92BF92CC
:104BA000CF92DF92FF920F931F93CF93DF936C010D
:104BB000EB018A010E942F27F82E811123C00115D5
:104BC000110539F0F80180819181C81BD90BC80EFD
:104BD000D91EB12CA12C2097A9F08091E80085FD69
:104BE00022C08091E8008E778093E80001151105BE
:104BF000A1F0F80180819181A80EB91EB182A08236
:104C000085E0F82E8F2DDF91CF911F910F91FF90AE
:104C1000DF90CF90BF90AF9008950E942F278823F8
:104C2000D1F2F82EEFCFF60181916F018093F10060
:104C30002197FFEFAF1ABF0ACECFFC0180919002FF
:104C40009091910286179707A0F06115710529F4DC
:104C50009091E8009E779093E80090E061157105CF
:104C600051F4911108C08091E80082FF35C080E0C6
:104C70000895BC01F2CF809189028823C9F1853063
:104C8000C9F18091E80083FD31C08091E80082FD88
:104C9000EACF8091E80080FFE1CF2091F30080917E
:104CA000F200322F282F6115710519F028303105D7
:104CB00058F091E02830310509F090E02091E800AB
:104CC0002E772093E800CACF81918093F100615044
:104CD00071092F5F3F4FE7CF80918902882341F010
:104CE000853041F08091E80083FFBDCF81E00895D9
:104CF00082E0089583E00895FC01809190029091F4
:104D0000910286179707A0F06115710529F480912B
:104D1000E8008E778093E80090E06115710551F40A
:104D2000911108C08091E80082FF36C080E00895AC
:104D3000BC01F2CF809189028823D1F18530D1F175
:104D40008091E80083FD32C08091E80082FDEACFC7
:104D50008091E80080FFE1CF2091F3008091F20084
:104D6000322F282F6115710519F02830310558F0C0
:104D700091E02830310509F090E08091E8008E77CD
:104D80008093E800CACF84918093F10031966150FE
:104D900071092F5F3F4FE6CF80918902882341F050
:104DA000853041F08091E80083FFBCCF81E0089519
:104DB00082E0089583E00895982F973028F08F704F
:104DC0008093E90081E008959093E900242F762FE5
:104DD00050E0981731F07091EC002091ED00509167
:104DE000F00021FD02C09F5FE8CF3091EB003E7FD5
:104DF0003093EB003091ED003D7F3093ED0030912A
:104E0000EB0031603093EB007093EC002093ED00E9
:104E10005093F0002091EE0027FDE5CF80E008954B
:104E200080918A0287FF13C08091E80082FF06C04C
:104E30008091E8008B778093E80004C0809189021C
:104E40008111F2CF0895809189028823D9F380914E
:104E5000E80080FFF8CF8091E8008E77ECCF2091BA
:104E6000E4003091E50085E69091EC0090FF06C0EB
:104E70009091E80090FF06C080E008959091E800CE
:104E800092FDFACF90918902992391F0953091F09B
:104E90009091EB0095FD10C04091E4005091E50029
:104EA0002417350709F381509A01F1F684E008953B
:104EB00082E0089583E0089581E008950E94CC2760
:104EC0000E94D427E0EEF0E0808181608083E8EDED
:104ED000F0E080818F77808319BCA7EDB0E08C91E2
:104EE0008E7F8C9380818F7E8083109288020895BC
:104EF0000F931F93CF93DF930E94CC270E94D42758
:104F0000C8EDD0E088818F77888388818068888326
:104F100088818F7D888319BC109289021092850246
:104F2000109287021092860200EE10E0F801808154
:104F30008B7F808388818160888342E060E080E0AD
:104F40000E94DC26E1EEF0E080818E7F8083E2EE3D
:104F5000F0E0808181608083808188608083F801B7
:104F600080818E7F8083888180618883DF91CF916B
:104F70001F910F910895E8EDF0E080818F7E80838E
:104F8000E7EDF0E080818160808384E082BF81E092
:104F9000809388020C947827E8EDF0E080818E7F82
:104FA00080831092E20008951092DA001092E100DE
:104FB00008951F920F920FB60F9211242F933F93D3
:104FC0004F935F936F937F938F939F93AF93BF9311
:104FD000EF93FF938091E10082FF0BC08091E2008C
:104FE00082FF07C08091E1008B7F8093E1000E94E7
:104FF0003C2A8091DA0080FF19C08091D80080FFA0
:1050000015C08091DA008E7F8093DA008091D900FC
:1050100080FF94C080E189BD82E189BD09B400FEB2
:10502000FDCF81E0809389020E9450248091E100AD
:1050300080FF19C08091E20080FF15C08091E200DE
:105040008E7F8093E2008091E20080618093E20095
:105050008091D80080628093D80019BC85E080934D
:1050600089020E9462248091E10084FF29C080911E
:10507000E20084FF25C080E189BD82E189BD09B4D9
:1050800000FEFDCF8091D8008F7D8093D800809165
:10509000E1008F7E8093E1008091E2008F7E80931B
:1050A000E2008091E20081608093E20080918502BD
:1050B000882309F449C084E0809389020E94632414
:1050C0008091E10083FF29C08091E20083FF25C029
:1050D0008091E100877F8093E10082E080938902E4
:1050E000109285028091E1008E7F8093E100809193
:1050F000E2008E7F8093E2008091E20080618093E5
:10510000E20042E060E080E00E94DC268091F00056
:1051100088608093F0000E946124FF91EF91BF911D
:10512000AF919F918F917F916F915F914F913F913F
:105130002F910F900FBE0F901F90189519BC1092D1
:1051400089020E945E2472CF8091E30087FD02C035
:1051500081E0B2CF83E0B0CF1F920F920FB60F92D3
:1051600011242F933F934F935F936F937F938F936C
:105170009F93AF93BF93CF93EF93FF93C091E900B9
:10518000CF708091EC001092E9008091F000877F51
:105190008093F00078940E94E8281092E9008091B2
:1051A000F00088608093F000C093E900FF91EF91D8
:1051B000CF91BF91AF919F918F917F916F915F91AF
:1051C0004F913F912F910F900FBE0F901F90189508
:1051D0001F93CF93DF93CDB7DEB7AA970FB6F8949E
:1051E000DEBF0FBECDBFEAE8F2E08091F10081930F
:1051F00022E0E239F207C9F70E9479248091E800A1
:1052000083FF42C080918A0290918B029A3008F00D
:105210003BC0E92FF0E0E15FF64D0C94B22B192969
:105220003D2944293D2944299829BA2944290F2A8E
:105230001C2A803879F0823839F580918E028F707F
:105240008093E9008091EB0085FB882780F910921C
:10525000E90006C0809186029091870291118260D8
:105260009091E800977F9093E8008093F10010926E
:10527000F1008091E8008E772DC0282F2D7F21F43A
:105280008823D1F0823059F18091E80083FF0AC071
:105290008091E800877F8093E8008091EB00806236
:1052A0008093EB00AA960FB6F894DEBF0FBECDBF79
:1052B000DF91CF911F91089580918C02813021F769
:1052C000933009F080E0809387021092E90080918A
:1052D000E800877F8093E8000E941027D5CF809157
:1052E0008C028111F2CF80918E028F7069F28093CF
:1052F000E9002091EB0020FFE8CF933031F480915A
:10530000EB0080628093EB00E0CF9091EB00906126
:105310009093EB0021E030E001C0220F8A95EAF77C
:105320002093EA001092EA008091EB008860EACFB7
:105330008111AACF10918C021F778091E3008078B1
:10534000812B8093E3008091E800877F8093E800C1
:105350000E9410278091E80080FFFCCF8091E3003D
:1053600080688093E30083E0111101C082E08093A4
:1053700089028ACF8058823008F086CF80918C02D3
:1053800090918D028C3D23E09207A1F583E08A8302
:105390008AE289834FB7F894DE01139620E03EE05D
:1053A00051E2E32FF0E050935700E49120FF03C057
:1053B000E295EF703F5FEF708E2F90E0EA30C0F023
:1053C000C7968D939D932F5F243159F74FBF8091DE
:1053D000E800877F8093E8006AE270E0CE010196E2
:1053E0000E941D268091E8008B778093E8004CCFC7
:1053F000C096E7CFAE014F5F5F4F60918E020E9473
:105400006325BC01892B09F43FCF9091E800977F79
:105410009093E80089819A810E947C26E3CF8038AE
:1054200009F032CF8091E800877F8093E800809177
:1054300085028093F1001DCF811126CF90918C02BF
:10544000923008F021CF8091E800877F8093E800B8
:10545000909385020E94102780918502882331F065
:1054600084E0809389020E9465240ECF8091E3003E
:1054700087FDF6CF81E0F5CF0895CF938091890223
:10548000882399F0C091E900CF708091EC0080FDF5
:105490000EC080E0C82B1092E9008091E80083FDE7
:1054A0000E94E828CF70C093E900CF91089580E86A
:1054B000F1CF0E94602A6894B1110C94EF2A0895EC
:1054C0000E94D42A88F09F5798F0B92F9927B75196
:1054D000B0F0E1F0660F771F881F991F1AF0BA9598
:1054E000C9F714C0B13091F00E94EE2AB1E00895DE
:1054F0000C94EE2A672F782F8827B85F39F0B93FD0
:10550000CCF3869577956795B395D9F73EF490954A
:105510008095709561957F4F8F4F9F4F0895E894C8
:1055200009C097FB3EF490958095709561957F4FEB
:105530008F4F9F4F9923A9F0F92F96E9BB27939599
:10554000F695879577956795B795F111F8CFFAF4A9
:10555000BB0F11F460FF1BC06F5F7F4F8F4F9F4FDA
:1055600016C0882311F096E911C0772321F09EE838
:10557000872F762F05C0662371F096E8862F70E09E
:1055800060E02AF09A95660F771F881FDAF7880F78
:105590009695879597F9089557FD9058440F551F94
:1055A00059F05F3F71F04795880F97FB991F61F0A5
:1055B0009F3F79F087950895121613061406551F1C
:1055C000F2CF4695F1DF08C0161617061806991F88
:1055D000F1CF86957105610508940895E894BB277D
:1055E00066277727CB0197F908950E94082B0C9422
:1055F000792B0E946B2B38F00E94722B20F09523A0
:1056000011F00C94622B0C94682B11240C94EF2A4B
:105610000E94CC2A70F3959FC1F3950F50E0551F5F
:10562000629FF001729FBB27F00DB11D639FAA27F7
:10563000F00DB11DAA1F649F6627B00DA11D661F46
:10564000829F2227B00DA11D621F739FB00DA11D67
:10565000621F839FA00D611D221F749F3327A00D21
:10566000611D231F849F600D211D822F762F6A2FBD
:1056700011249F5750409AF0F1F088234AF0EE0F22
:10568000FF1FBB1F661F771F881F91505040A9F74F
:105690009E3F510580F00C94622B0C94EF2A5F3FE3
:1056A000E4F3983ED4F3869577956795B795F7958B
:1056B000E7959F5FC1F7FE2B880F911D9695879503
:1056C00097F9089597F99F6780E870E060E0089582
:1056D0009FEF80EC089500240A941616170618060A
:1056E0000906089500240A941216130614060506E6
:1056F0000895092E0394000C11F4882352F0BB0F77
:1057000040F4BF2B11F460FF04C06F5F7F4F8F4FD9
:105710009F4F0895AA1BBB1B51E107C0AA1FBB1FC7
:10572000A617B70710F0A61BB70B881F991F5A952D
:10573000A9F780959095BC01CD01089597FB072EA0
:1057400016F4009407D077FD09D00E948A2B07FC3D
:1057500005D03EF4909581959F4F08957095619581
:105760007F4F0895EE0FFF1F0590F491E02D0994EF
:10577000F999FECF92BD81BDF89A992780B5089519
:10578000A6E1B0E044E050E00C94F22BA8E1B0E0D8
:1057900042E050E00C94F22B262FF999FECF92BDF7
:1057A00081BDF89A019700B4021639F01FBA20BDE6
:1057B0000FB6F894FA9AF99A0FBE08950396272F18
:1057C0000E94CD2B0E94CC2B252F0E94CD2B242F65
:1057D0000C94CD2B0196272F0E94CD2B0C94CC2B13
:1057E000DC01CB01FC01F999FECF06C0F2BDE1BDA1
:1057F000F89A319600B40D9241505040B8F7089590
:04580000F894FFCF4A
:10580400FF02022808140A321E6E230024DB23A59B
:1058140023712301F0F1C66766369431F735349766
:105824009633329091929395404D3639840D370DCD
:0C583400010DC80C5B0C740C8D0CA60C54
:00000001FF
